:1000000009C00EC00DC00CC00BC00AC00BC008C098
:1000100007C006C011241FBECFE9CDBF1DD0BCC094
:10002000EFCF00001FB693959B3469F490E03395B1
:100030003C3349F430E023952C3329F420E0139528
:10004000183109F410E01FBE189500315191A262D9
:100050003264C454A8C898000FE90DBFF894B89A48
:10006000B99ABA9ABC9800E017E025E230E04FEF69
:1000700050E060E070E080E090E0A0E0B0E0082EAA
:10008000182E479A3798359805B7077E006207BB48
:1000900003B70C7F046003BF0AEF06BF0FB50E70F5
:1000A00002600FBD03B7077F03BF09B7046009BF34
:1000B0007894889503D0503029F5FBCF06B304FD22
:1000C0005AE000000895EAE4F0E0E00FF81FC89558
:1000D000A7B3A07F002D02950F70A02BA7BBA8B3DC
:1000E000A07F002D0F70A02BA8BB0895B0E0C2E345
:1000F000D0E50C1710F0BD2B0C1BCA50D051C9F71E
:10010000B02B0895C598BD9A5A955030F9F17FEFFC
:10011000012F0D3018F00C50C59A01C0C598E6DFCC
:100120000B2F02950170CFDF00E0B0FD02E0CBDFC6
:1001300000E0B1FD03E0C7DF00E0B2FD04E0C3DF93
:1001400000E0B3FD05E0BFDF032FD0DF00E0B4FD2A
:1001500006E0B9DF00E0B5FD07E0B5DF00E0B6FD81
:1001600008E0B1DF00E0B0FD09E0ADDF00E0B1FD87
:100170000AE0A9DF00E0B2FD0BE0A5DF00E0B3FD7F
:100180000CE0A1DF9BDF7A9519F6BECF07B3007FA5
:0C0190000F7D07BB8ECF0000F894FFCF5E
:00000001FF
