:1000000009C00EC00DC00CC00BC00AC00AC008C099
:1000100007C006C011241FBECFE9CDBF28D073C1D1
:10002000EFCF1FB693959B3401F590E033953C33A9
:10003000E1F430E02395422F4F704A30B1F4207F35
:1000400040E1240F203689F420E01395412F4F71B1
:100050004A3019F4107F40E1140F412F4F714331A2
:1000600021F440E81427107811601FBE18950FE99D
:100070000DBFF894B89AB99ABA9ABB9A00E012E107
:1000800020E030E040E050E060E070E080E090E0B0
:10009000A0E0B0E0102EBC98479A3798359805B785
:1000A000077E05BF03B70B7F036003BF0DE706BFE5
:1000B0000FB50E7002600FBD03B7077F03BF09B70E
:1000C000046009BF789416C005B7006205BF05B784
:1000D0000F7D05BF03D0503031F4F6CF06B304FDD9
:1000E0005AE000000895C598BD9A5A95503011F015
:1000F0007FEF09C007B3007F0F7D07BB08B3007F08
:100100000F7D08BBE1CFA8B3B7B3A07FA8BBB07F7A
:10011000B7BB17FF06C0B07FB062B7BBA062A8BB79
:1001200007C0000000000000000000000000000008
:10013000A07FA8BBB07FB7BB14FF06C0B07FB36081
:10014000B7BBA160A8BB07C0000000000000000012
:10015000000000000000A07FA8BBB07FB7BB10FF6D
:1001600006C0B07FB560B7BBA160A8BB07C00000E8
:10017000000000000000000000000000A07FA8BBFD
:10018000B07FB7BB11FF06C0B07FB960B7BBA1603D
:10019000A8BB07C000000000000000000000000035
:1001A0000000A07FA8BBB07FB7BB12FF06C0B07F26
:1001B000BA60B7BBA260A8BB07C000000000000087
:1001C0000000000000000000A07FA8BBB07FB7BB0C
:1001D00013FF06C0B07FB660B7BBA260A8BB07C064
:1001E0000000000000000000000000000000A07FF0
:1001F000A8BBB07FB7BB24FF06C0B07FB360B7BB5E
:10020000A260A8BB07C000000000000000000000C2
:1002100000000000A07FA8BBB07FB7BB25FF06C0D1
:10022000B07FB660B7BBA460A8BB07C000000000E9
:1002300000000000000000000000A07FA8BBB07F0D
:10024000B7BB26FF06C0B07FBC60B7BBA460A8BB2D
:1002500007C00000000000000000000000000000D7
:10026000A07FA8BBB07FB7BB20FF06C0B07FB56042
:10027000B7BBA460A8BB07C00000000000000000DE
:10028000000000000000A07FA8BBB07FB7BB21FF2B
:1002900006C0B07FBA60B7BBA860A8BB07C00000AB
:1002A000000000000000000000000000A07FA8BBCC
:1002B000B07FB7BB22FF06C0B07FBC60B7BBA860F1
:1002C000A8BB07C000000000000000000000000004
:1002D0000000A07FA8BBB07FB7BB23FF06C0B07FE4
:1002E000B960B7BBA860A8BB07C000000000000051
:1002F0000000000000000000F1DE7A9509F4F5CE60
:0A030000E6E0F1E00994F894FFCF65
:00000001FF
